:102C1C00E4FDFCC3ED9FEC9E50070DBD00010C8044
:022C2C00F22292
:102B7700AB07AA06900000C3E5829BE5839A500A3B
:0B2B87007F3C7E00122C1CA380ED227E
:102BE000E4FDFCEFFBC3ED9BEC940050070DBD0032
:052BF000010C80EF2242
:102723009001ACEFF0E4A3F0A3F09001ACE0FFC3A1
:102733009001AEE09F9001ADE094005020C006C030
:10274300057E047D68DDFEDEFAD005D0069001AE7D
:0E275300E004F070D59001ADE004F080CD22DE
:10279F009001A9EFF0E4A3F0A3F09001A9E0FFC32B
:1027AF009001ABE09F9001AAE09400501F7FC812E8
:1027BF0027237FC81227237F851227239001ABE0A1
:0D27CF0004F070D69001AAE004F080CE2244
:10284F009001A6EFF0E4A3F0A3F09001A6E0FFC380
:10285F009001A8E09F9001A7E0940050157F02120D
:10286F00279F9001A8E004F070E09001A7E004F02A
:03287F0080D822DC
:1026780067756368436F6D706C65746544617461F8
:102688005061636B6574203D2025730A004C6174AA
:102698006974756465203D25732C25630A004C6FA9
:1026A8006E676974756465203D25732C25630A007F
:1026B8004100530056005200470024475047474105
:0C26C800534154557365643D25640A00BD
:102882005E016F4750474741004750475341004759
:1028920050475356004750524D43004750565447F5
:0128A2000035
:10253700E49001A6F0F0122C9D9001A6E024A7F5E7
:1025470082E43401F583EFF09001A6E004F0E0C3E4
:10255700940540E29001A6E024A7F582E43401F552
:1025670083E4F09001A6F09001A6E0FFC394055024
:102577002AEF75F006A4246FF9740135F0FA7B0190
:1025870078A77C017D01120789EF70079001A6E00B
:0D25970004FF229001A6E004F080CC7F1428
:0125A4002214
:102B59007F02122AAD1228B51228B51228B51228FB
:0E2B6900B51228B51228B51228B51228B522CB
:1028B500122C9DBF24FA122537900232EFF024FE28
:1028C50060101460101460101460102404700F025E
:0F28D500234E022CAD0223D9021003121CF8224D
:10234E00E49001ABF09001A77430F0A3F0E4A3F099
:10235E009001ABF0122C9DBF2CFA9001ABE004F073
:10236E00E0C3940640EE122C9D9001A6EFF0E4908F
:10237E0001ABF0122C9D801AEF642C601A9001AB09
:10238E00E024A7F582E43401F583EFF09001ABE091
:10239E0004F0122C9D80E17B017A0179A7121DD3E6
:1023AE009001AAEFF09001A6E090012DF09001D2DD
:1023BE007401F0A37401F0A374A7F0A3E4F0A37466
:0B23CE0002F07B017A01792E0226103C
:012CAD002204
:1023D900E49001AAF09001A77430F0A3F0E4A3F00F
:1023E900A3F0122C9DBF2CFA9001AAE004F0E0C3DF
:1023F900940340EEE49001AA8019EF642C601A90CE
:1024090001AAE024A7F582E43401F583EFF09001F5
:10241900AAE004F0122C9D80E1E49001A9F07B016F
:102429007A0179A7121DD39001A6EFF09001D27419
:1024390001F0A37401F0A374A7F0A3E4F0A374025C
:0A244900F07B017A017930022610C1
:10100300E49001ADF09001B9F09001C5F09001CDED
:10101300F0F09001CDE0FFC3940B504274AE2FF576
:1010230082E43401F5837430F074BA2FF582E4342A
:1010330001F5837430F0EFC39406501A74A62FF5AC
:1010430082E43401F5837430F074C62FF582E434FE
:1010530001F5837430F09001CDE004F080B4E490A6
:1010630001B8F09001C4F09001ACF09001CCF01203
:101073002C9D9001CEEFF0E49001CDF0122C9D90C9
:1010830001CDE024A6F582E43401F583EFF090016D
:10109300CDE004F0E0C3940640E2122C9DBF2CFA8D
:1010A300122C9D9001ADEFF0122C9D9001CEEFF02C
:1010B300E49001CD801D9001CEE0FF642C601F9071
:1010C30001CDE024AEF582E43401F583EFF0900125
:1010D300CDE004F0122C9D9001CEEFF080D8122CBD
:1010E3009D9001B9EFF0122C9DBF2CFAE49001CD35
:1010F300801D9001CEE0FF642C601F9001CDE024A1
:10110300BAF582E43401F583EFF09001CDE004F009
:10111300122C9D9001CEEFF080D89001CDE024BA3F
:10112300F582E43401F583E4F0122C9D9001C5EFC0
:10113300F0122C9DBF2CFA122C9DBF2CFA122C9D61
:10114300BF2CFAE49001CD801D9001CEE0FF642C0A
:10115300601F9001CDE024C6F582E43401F583EFEE
:10116300F09001CDE004F0122C9D9001CEEFF080C1
:10117300D89001D27401F0A37401F0A374A6F0A374
:10118300E4F0A37406F07B017A01794912261090EA
:1011930001ADE0900132F09001D27401F0A374012B
:1011A300F0A374AEF0A3E4F0A3740AF07B017A0118
:1011B30079331226109001D27401F0A37401F0A3C5
:1011C30074AEF0A3E4F0A3740AF07B017A0179987A
:1011D300122610E49001A2F09001B9E090013DF0D5
:1011E30090016EF09001D27401F0A37401F0A37426
:1011F300BAF0A3E4F0A3740AF07B017A01793E12FA
:1012030026109001D27401F0A37401F0A374BAF014
:10121300A3E4F0A3740AF07B017A01798D122610FE
:10122300E4900197F09001C5E0900148F090012C03
:10123300F09001D27401F0A37401F0A374C6F0A37B
:0F124300E4F0A37406F07B017A01794F022610C4
:101CF800E49001B3F0F09001B3E0FFC394055022E3
:101D080074A62FF582E43401F5837430F074AC2F97
:101D1800F582E43401F5837430F09001B3E004F007
:101D280080D49001B17430F0E4A3F09001ABF0904E
:101D380001B3F0122C9DBF2CFA9001B3E004F0E03F
:101D4800C3940340EEE49001B38019EF642C601A49
:101D58009001B3E024A6F582E43401F583EFF09016
:101D680001B3E004F0122C9D80E1E49001B38019E6
:101D7800EF642C601A9001B3E024ACF582E43401DE
:101D8800F583EFF09001B3E004F0122C9D80E19010
:101D980001D27401F0A37401F0A374A6F0A3E4F0D7
:101DA800A37406F07B017A0179551226109001D2AE
:101DB8007401F0A37401F0A374ACF0A3E4F0A3746D
:0B1DC80007F07B017A01795A02261017
:10218A0041540041542B434D47463D310041542BA5
:10219A00434D47533D0025730041542B434E4D494F
:1021AA003D322C312C302C302C300041542B434DF5
:1021BA0047443D0025640041542B434D4744413D6B
:1021CA000044454C20414C4C0044454C20494E4269
:1021DA004F580044454C20554E5245414400444511
:1021EA004C2053454E540044454C20554E53454EC1
:1021FA00540041542B4350494E3F005245414459E3
:10220A000041542B434D47523D3100554E524541F2
:0F221A00440052454144004154453000256300C3
:1026D4007F01122AADE49001A6F07BFF7A21798A6A
:1026E4001209B7122C2E7F1E1227239001A6E00494
:1026F400F0E0C3941E40E37BFF7A21798A1209B784
:10270400122C2E7BFF7A21798D1209B7122C2E12EE
:0F2714002C2E7F1E122723122C7D7F1E022723BF
:1024C8009001A6EBF0A3EAF0A3E9F07F01122AAD90
:1024D8007BFF7A2179971209B7122C5E9001A6E04A
:1024E800F9A3E0FAA3E09001AFC9F0A3EAF0A3E9E9
:1024F800F07BFF7A2179A01209B7122C5E122C2EDC
:102508007F147E00122B779001A9E0F9A3E0FAA3CB
:10251800E09001AFC9F0A3EAF0A3E9F07BFF7A21CC
:0F25280079A01209B7122C4E7F647E00022B7728
:102B92007F01122AAD7BFF7A2179A31209B7122C89
:0B2BA2002E122C3E122C9DBF0AFA22BE
:0B2C89007F01122AAD1226D4022B920C
:102BAD007F01122AAD7BFF7A2179A31209B7122C6E
:0B2BBD002E122C3E122C9DBF0AFA22A3
:10296D00900231EFF07F01122AAD7BFF7A2179B50C
:10297D001209B77BFF7A2179BE900231E09001AF49
:0A298D00F01209B7122C2E022C3EA6
:102ACD007F01122AAD7BFF7A2179C11209B7122C31
:102ADD005E7BFF7A2179CB1209B7122C5E122C2E58
:032AED00022C3E7A
:1028E4007F01122AAD7BFF7A2179C11209B7122C1C
:1028F4005E7BFF7A2179D31209B7122C5E122C2E3B
:0E290400122C3E122C9DBF0DFA7F0102284FAF
:102AF0007F01122AAD7BFF7A2179C11209B7122C0E
:102B00005E7BFF7A2179DD1209B7122C5E122C2E22
:032B1000022C3E56
:102B13007F01122AAD7BFF7A2179C11209B7122CEA
:102B23005E7BFF7A2179E81209B7122C5E122C2EF4
:032B3300022C3E33
:102997007F01122AAD7BFF7A2179C11209B7122C68
:1029A7005E7BFF7A2179F11209B7122C5E122C2E69
:0A29B700122C3E122C9DBF4BFA2299
:1029C1007F01122AAD7BFF7A2179C11209B7122C3E
:1029D1005E7BFF7A2179D31209B7122C5E122C2E5D
:0A29E100122C3E122C9DBF0DFA22AD
:10245300E4900230F07F01122AAD7BFF7A2179FCF0
:102463001209B7122C2E122C3E122C9DBF2BFAE40C
:102473009002308019EF640D601A900230E024213D
:10248300F582E43402F583EFF0900230E004F012B9
:102493002C9D80E1900230E02421F582E43402F5A2
:1024A30083E4F09001AA74FFF0A37422F0A37405EF
:1024B300F07B017A027921121F70EA494B60037F96
:0424C30001227F0073
:0124C70022F2
:102818007F01122AAD7BFF7A22790B1209B7122C9D
:102828002E122C3E800AEF644F600AEF642B60057D
:10283800122C9D80F1EF24D5600724DC70067F03FD
:07284800220222297F022277
:10222900E49001A6F0FF122C9DEF640D6018122CAA
:102239009D9001A6E0FE04F074D72EF582E43400E7
:10224900F583EFF080E3122C9D8008122C9DEF643A
:102259000D60159001A6E0FE04F074D72EF582E416
:102269003400F583EFF080E39001A6E024D7F582EE
:10227900E43400F583740DF09001AA74FFF0A3749F
:1022890022F0A37415F07B017A0079D7121F70EA46
:10229900494B60037F00229001AA74FFF0A37422C6
:1022A900F0A3741CF07B017A0079D7121F70EA49F8
:0822B9004B60037F01227F024C
:0122C10022FA
:10202F00E4FF74D72FF582E43400F583E0642B606E
:10203F00030F80EE9001BAEFF0E4FF9001BAE02FAA
:10204F0024D7F582E43400F583E0FE74A62FF582E1
:10205F00E43401F583EEF00FEFB40DDF74A62FF526
:10206F0082E43401F583E4F078C87C007D017B01C4
:10207F007A0179A6120872E4FF74D72FF582E4343F
:10208F0000F583E0640A60030F80EE0F9001BAEF52
:10209F00F0E4FF9001BAE02F24D7F582E43400F585
:1020AF0083E0FE640D600F74A62FF582E43401F512
:1020BF0083EEF00F80DD74A62FF582E43401F583F3
:1020CF00E4F078007C007D017B017A0179A602089B
:0120DF00728E
:0C2C7D007BFF7A2279211209B7022C2E6D
:102C2E007F0D7BFF7A2279269001AFEFF00209B774
:102C3E007F0A7BFF7A2279269001AFEFF00209B767
:102C4E007F1A7BFF7A2279269001AFEFF00209B747
:102C5E007F227BFF7A2279269001AFEFF00209B72F
:1027DC0020202020202020202020202020202020ED
:1027EC00200020456E7465722070617373776F7270
:1027FC0064002A000A6B65792070726573736564D6
:0C280C002069733D2025430A002543008D
:0F28A3004C02153132333435363738392A302369
:1020E0009001A6EFF0E4FD7F01122BC87BFF7A2759
:1020F00079DC122912E4FD7F02122BC87BFF7A27BC
:1021000079DC1229127F03122AADE490020BF090C1
:1021100001A6E0FF90020BE0C39F505EE4FD7F014B
:10212000122BC87BFF7A2779EE12291212145290D3
:10213000020CE0FF90020BE0240DF582E43402F57E
:1021400083EFF07FF412272390020BE0FD7F021251
:102150002BC87BFF7A2779FE1229129001AF7401F8
:10216000F0A37402F0A3740DF07BFF7A28790012BB
:1021700009B790020BE004F0809590020BE0240D6B
:0A218000F582E43402F583E4F02256
:10145200D287D286D285D28475A0FFE5A0B4FF10D0
:1014620030870D30860A3085073084047F01800280
:101472007F00EF601BE5A0B4FF1030870D30860AB5
:101482003085073084047E0180027E00AF0680E250
:1014920020A0217F6412272320A008900215E0904B
:1014A200020CF07BFF7A28791590020CE09001AFD4
:1014B200F01209B720A1217F6412272320A10890EE
:1014C2000216E090020CF07BFF7A28791590020C4C
:1014D200E09001AFF01209B720A2217F6412272306
:1014E20020A208900217E090020CF07BFF7A287984
:1014F2001590020CE09001AFF01209B720A3217FF2
:101502006412272320A308900218E090020CF07BBB
:10151200FF7A28791590020CE09001AFF01209B71A
:1015220020A4217F6412272320A408900219E090AE
:10153200020CF07BFF7A28791590020CE09001AF43
:10154200F01209B720A5217F6412272320A5089055
:10155200021AE090020CF07BFF7A28791590020CB7
:10156200E09001AFF01209B720A6217F6412272371
:1015720020A60890021BE090020CF07BFF7A2879EB
:101582001590020CE09001AFF01209B720A7217F5D
:101592006412272320A70890021CE090020CF07B23
:1015A200FF7A28791590020CE09001AFF01209B78A
:1015B2002087217F6412272320870890021DE09054
:1015C200020CF07BFF7A28791590020CE09001AFB3
:1015D200F01209B72086217F641227232086089003
:1015E200021EE090020CF07BFF7A28791590020C23
:1015F200E09001AFF01209B72085217F6412272302
:1016020020850890021FE090020CF07BFF7A287977
:101612001590020CE09001AFF01209B72084217FEF
:1016220064122723208408900220E090020CF07BB1
:10163200FF7A28791590020CE09001AFF01209B7F9
:011642002285
:0228B200C11152
:102912009001A7EBF0A3EAF0A3E9F09001A7E0FB96
:10292200A3E0FAA3E0F91205CAFF6011F520122A0A
:0E2932003A9001A8E475F0011205F580DE224E
:06294000C292C293D2080E
:10294600E520300812339297E520A2E69296A2E59A
:102956009295A2E4929422A2E39297A2E29296A280
:07296600E192951392942207
:102A8500122940000000D2937F01122BE0C293006F
:102A95000000C208122946000000D2937F01122BC4
:042AA500E0C29322D6
:102A3A00D292122942000000D2937F01122BE0C2E7
:102A4A0093000000C208122946000000D2937F01B9
:062A5A00122BE0C29322E2
:102C0900752020122940000000D2937F01122BE089
:032C1900C2932241
:102A60007F0112279F122C0975202C122A857520B0
:102A70000C122A85752006122A85752001122A85D6
:052A80007F0102272385
:102BC800EFB40207ED24C0F5208005ED2480F52040
:082BD800122A857F0102272368
:10125200002800280028002800280028002800284C
:1012620000320037003700370037003700370037C9
:10127200003700370037003C003E00410043004683
:10128200004B004D004D004D0050005200550057DC
:101292000057005A005A005A005A005C005F006171
:1012A2000061006400660069006B006E00730073E9
:1012B20000730073006E006E006E006E00700070AE
:1012C2000070007000700078007D007D007F007F5C
:1012D2000082008200840089008E009100910091BA
:1012E200009600960096009600960096009600964C
:1012F2000096009600960096009D00A000A500A70B
:1013020000AA00AA00AF00B400BC00B900BE00C031
:1013120000C500C800CA00CF00CF00CF00D400D45F
:1013220000D400D400DC00DE00E100E300E300E3CF
:1013320000E300E600E600E800F500FA00FF010421
:101342000109010E010E0110011301130118011D03
:1013520001220124012901180118011A012E012E6E
:101362000131013301330136013D01450147014A93
:10137200014A014A014A014A0163016501680168A3
:101382000172017C01860190019A01A401AE01B8AB
:1013920001C201CC01D601E001EA01F401FE02081A
:1013A2000212021C02260230023A0244024E025883
:1013B2000262026C02760280028A0294029E02A8F3
:1013C20002B202BC02C602D002DA02E402EE02F863
:1013D2000302030C03160320032A0334033E0348CB
:1013E2000352035C03660370037A0384038E03983B
:1013F20003A203AC03B603C003CA03D403DE03E8AB
:1014020003F203FC04060410041A0424042E043814
:101412000442044C04560460046A0474047E048882
:101422000492049C04A604B004BA04C404CE04D8F2
:1014320004E204EC04F60500050A0514051E05285D
:101442000532053C05460550055A0564056E0578CA
:10276100C2807F01122B367BFF7A0579281209B7C7
:10277100D282122A607D007F01122BC87BFF7A056D
:1027810079281229127D007F02122BC87BFF7A055E
:0E27910079171229127F0112284F120CB12263
:10000300426F6F74205570204D657373616765206F
:1000130066726F6D2050726F6A656374202D20497C
:1000230020616D20416374697665000A4D657373C1
:100033006167652053656E7420746F205072656428
:100043006566696E6564204E756D6265720A000AA5
:100053004D4F44454D2053657420696E20322C3139
:100063002C302C302C30204D6F646520746F20525F
:1000730065636965766520496E636F6D696E672098
:10008300534D53730A0067756368436F6D706C65F6
:10009300746547534D446174615061636B657420AB
:1000A3003D2025730A004C61746974756465203DB5
:1000B30025732C25630A004C6F6E6769747564653C
:1000C300203D25732C25630A0020505245535320AD
:1000D3004C4F434B204B455920002020202020200B
:1000E3002020202020202020202020004341524790
:1000F3004F204953204C4F434B45442000636172CA
:10010300676F20697320617420736F757263652054
:1001130073746174696F6E00436172676F20497312
:1001230020476F696E67546F00416368617279613C
:1001330020436F6C6C65676520000A4465737469BE
:100143006E6174696F6E2052656163686564005700
:10015300414954494E4720464F52204D53472000B2
:10016300202046524F4D20534F55524345202020C7
:10017300000A57616974696E6720666F7220417562
:1001830074686F726973696E67204D657373616715
:10019300652066726F6D20426173652053746174CC
:1001A300696F6E000A417574686F726973696E676F
:1001B300204D657373616765205245434945564534
:1001C3004400205357495045205246494420434157
:1001D30052442000726669642063617264206E6F0A
:1001E300206973203D202573007266696420636172
:1001F3007264206E6F206973206D61746368656437
:1002030020006B65792070726573736564203D20EF
:10021300257300636172676F206973206F6E2074AA
:1002230068652077617900434152474F2049734FF6
:100233006E57415920544F0050415353574F524426
:10024300204D4154434845440043415554494F4E82
:100253003A20594F55522056454849434C45206E44
:100263006F20313131200A20004C4F434B2049533A
:10027300204F50454E454420535543434553534621
:10028300554C4C592041542044455354494E4154F4
:10029300494F4E20002049545320434F5244494E66
:1002A30041544553204152452040004E2000450013
:1002B3004C4F434B204953204F50454E4544205308
:1002C30055434345535346554C4C592041542044C0
:1002D300455354494E4154494F4E0A002049545303
:1002E30020434F5244494E41544553204152450AFD
:1002F30020004E0A00450A00204143434553532042
:1003030044454E4945442000554E415554484F52AB
:10031300495345442050455253494F4E2049532099
:10032300545259494E4720544F204F50454E204C6C
:100333004F434B2041542044455354494E41544963
:100343004F4E0A0049532054414D504552454421D4
:100353002120200A00200D2049545320434F5244AA
:10036300494E41544553204152450A2000495320E8
:1003730054414D50455245442121202000434155CD
:1003830054494F4E3A20594F5552205645484943F8
:100393004C45206E6F20313131200048617320526B
:1003A30045414348454420544F2044455354494E06
:1003B3004154494F4E20004D53472053656E6454BA
:1003C3006F426173655374000A4E4557204D657340
:1003D300736167652050726573656E7420696E2062
:1003E300494E424F58000A50686F6E65204E756D36
:1003F300626572203D2025730A000A4D657373619F
:100403006765203D2025730A000A4E4F206E6577ED
:10041300206D65737361676520696E20696E626F15
:1004230078000A494E424F5820454D5054590A000E
:100433000A4552524F522052656164696E672053D8
:100443007461747573000A496E626F782053746126
:1004530074757320436865636B656420616E642003
:100463004D657373616765204465636F64656420DC
:10047300696620616E792070726573656E740A0017
:100483000A416C6C204D6573736167657320446525
:100493006C657465640A003132333400535441543B
:1004A30055530043415554494F4E3A5354415455C3
:1004B300533A20594F55522056454849434C4520FD
:1004C3006E6F203131312000204954275320434F90
:1004D3005244494E41544553204152452040000A5D
:1004E300204D6573736167652053656E742077696A
:1004F3007468207468697320426F6479200A002548
:10050300730A002020204920416D204163746976DD
:1005130065202000205553494E47204750532C2037
:1005230047534D2000434152474F2050494C4645C5
:1005330052414745200050726F6A656374207061B1
:1005430072746E65727300202020204E616D6520E9
:100553003120202020202000202020204E616D65A6
:10056300203220202020202000202020204E616DDA
:1005730065203320202020202000202020204E61D1
:100583006D65203420202020202000393033353180
:100593003335353539000000000000000000003716
:1005A3003230343933313537310000000000000078
:1005B3000000003937333837333137363500000020
:0705C3000000000000000031
:042AA900EFF07F03C8
:102AAD00EF601314600B14600314800FC2B7D2B61D
:102ABD0022D2B7C2B622C2B7C2B622D2B7D2B6227E
:100CB1007F0512284FE49001DAF07F01122AAD126C
:100CC10026D4E49001A3F0A3F09001A3E0FEA3E0F9
:100CD100FFC39402EE940050507C007D141205E392
:100CE10074A22FF974053EFA7BFF781D7C017D010A
:100CF10012087278287C007D017BFF7A007903124B
:100D010008729001A97401F0A37400F0A37428F093
:100D11007B017A01791D1224C89001A4E004F070CE
:100D2100A89001A3E004F080A07F03122AAD7BFF0D
:100D31007A00792E1209B7C298C298122B927F03BA
:100D4100122AAD7BFF7A0079521209B7122B597F13
:100D510003122AAD9001AF7401F0A37400F0A374E3
:100D610028F07BFF7A0079891209B79001AF7401ED
:100D7100F0A37401F0A37498F090016EE09001B2B9
:100D8100F07BFF7A0079A91209B79001AF7401F0E5
:100D9100A37401F0A3748DF090012CE09001B2F0E6
:100DA1007BFF7A0079BA1209B7E4FD7F01122BC8E3
:100DB1007BFF7A057928122912E4FD7F02122BC8E4
:100DC1007BFF7A05791712291275A0FFC280208155
:100DD1004AE4FD7F01122BC87BFF7A0079CC1229EE
:100DE10012E4FD7F02122BC87BFF7A0079DD122904
:100DF100122082FDC281E4FD7F01122BC87BFF7AA4
:100E01000079EF122912E4FD7F02122BC87BFF7AD1
:100E11000079DD1229127F0112284F78DC7C017DD7
:100E2100017BFF7A017900120872E4FD7F01122B28
:100E3100C87BFF7A01791B122912E4FD7F02122B74
:100E4100C87BFF7A01792C1229122081189001DACE
:100E5100E07012122C949001DAEFF01229EB7F026C
:100E610012284F80E53081031216439001DAE064C5
:060E7100016003020DCD3B
:100E77007F03122AAD7F0112284F7BFF7A01793D4C
:100E87001209B7121C057F01122AAD122ACD1228AA
:100E97001890020AEFF0E4FD7F01122BC87BFF7A5E
:100EA700017952122912E4FD7F02122BC87BFF7AC7
:100EB70001796312291290020AE060267F01122A43
:100EC700AD12284F12281890020A122AA97F011280
:100ED700284F7BFF7A0179741209B77F0112284FD7
:100EE70080D47F03122AAD7BFF7A0179A71209B755
:100EF700C298C298E4FD7F01122BC87BFF7A017963
:100F0700C5122912E4FD7F02122BC87BFF7A0079F4
:100F1700DD1229127F0112284FE4FF122AAD122C8D
:100F27009DBF03FAE49001DBF09001A5E0640A603D
:100F37001F122C9D9001A5EFF09001DBE024FAF53C
:100F470082E43401F583EFF09001DBE004F080D90F
:100F57009001DBE024F8F582E43401F583E4F07FC7
:100F670003122AAD9001AF7401F0A37401F0A374CA
:100F7700FAF07BFF7A0179D71209B7C298C29812A3
:100F8700202F9001AA7401F0A37401F0A374FAF062
:100F97007B017A007900121F70EA494B60547F0386
:100FA700122AAD7BFF7A0179EC1209B77F0212286A
:100FB7004F7F051220E09001AF7401F0A37402F097
:100FC700A3740DF07BFF7A0279051209B79001AA85
:100FD7007401F0A37402F0A3740DF07B017A007919
:100FE70000121F70EA494B6009D281C280121812A1
:090FF7008003121AFEC298C29890
:03100000020DCD11
:1029EB0078DC7C017D017BFF7A027916120872304C
:1029FB008103121643E4FD7F01122BC87BFF7A0281
:082A0B00792A122912021EAE05
:092C94002082037F01227F00224F
:10181200E4FD7F01122BC87BFF7A02793B12291269
:10182200E4FD7F02122BC87BFF7A0079DD122912B8
:101832007F0512284F7F01122AAD781D7C017D01A0
:101842007BFF7A05798E12087278287C007D017BF5
:10185200FF7A02794C1208729001A974FFF0A37406
:1018620002F0A3746CF07B017A0079281225A5900E
:1018720001A974FFF0A37402F0A37498F07B017ABB
:101882000079281225A59001A97401F0A37401F032
:10189200A37498F07B017A0079281225A59001A9FA
:1018A20074FFF0A37402F0A374AEF07B017A0079A6
:1018B200281225A59001A97401F0A37401F0A37464
:1018C2008DF07B017A0079281225A59001A974FF79
:1018D200F0A37402F0A374B1F07B017A00792812AC
:1018E20025A59001A97401F0A37400F0A37428F057
:1018F2007B017A01791D1224C87F01122AAD781D5D
:101902007C017D017BFF7A0579A212087278287C1E
:10191200007D017BFF7A02794C1208729001A97452
:10192200FFF0A37402F0A374B3F07B017A0079286C
:101932001225A59001A974FFF0A37402F0A374DF2D
:10194200F07B017A0079281225A59001A97401F093
:10195200A37401F0A37498F07B017A007928122510
:10196200A59001A974FFF0A37402F0A374F5F07BB3
:10197200017A0079281225A59001A97401F0A374B7
:1019820001F0A3748DF07B017A0079281225A590CD
:1019920001A974FFF0A37402F0A374F8F07B017A3A
:1019A2000079281225A59001A97401F0A37400F012
:1019B200A37428F07B017A01791D1224C87F0312D7
:1019C2002AAD9001AF7401F0A37400F0A37428F063
:0919D2007BFF7A0079890209B754
:101AFE00D280E4FD7F01122BC87BFF7A0279FB12A4
:101B0E002912E4FD7F02122BC87BFF7A0079DD12C9
:101B1E0029127F0212284F7F01122AAD781D7C01F7
:101B2E007D017BFF7A05798E12087278287C007D04
:101B3E00017BFF7A02794C1208729001A974FFF0B2
:101B4E00A37403F0A3740BF07B017A00792812259D
:101B5E00A59001A974FFF0A37402F0A37498F07B12
:101B6E00017A0079281225A59001A97401F0A374B9
:101B7E0001F0A37498F07B017A0079281225A590C4
:101B8E0001A974FFF0A37402F0A374AEF07B017A86
:101B9E000079281225A59001A97401F0A37401F013
:101BAE00A3748DF07B017A0079281225A59001A9E6
:101BBE0074FFF0A37402F0A374B1F07B017A007984
:101BCE00281225A59001A97401F0A37400F0A37446
:101BDE0028F07B017A01791D1224C87F03122AADE9
:101BEE009001AF7401F0A37400F0A37428F07BFF92
:071BFE007A0079890209B7A2
:10164300D2807F01122AAD781D7C017D017BFF7A58
:101653000579A212087278287C007D017BFF7A024B
:10166300794C1208729001A974FFF0A37403F0A3DC
:101673007447F07B017A0079281225A59001A9749B
:1016830001F0A37401F0A374DCF07B017A007928E4
:101693001225A59001A974FFF0A37403F0A3745855
:1016A300F07B017A0079281225A59001A97401F035
:1016B300A37401F0A37498F07B017A0079281225B2
:1016C300A59001A974FFF0A37402F0A374F5F07B55
:1016D300017A0079281225A59001A97401F0A37459
:1016E30001F0A3748DF07B017A0079281225A5906F
:1016F30001A974FFF0A37402F0A374F8F07B017ADC
:101703000079281225A59001A97401F0A37400F0B3
:10171300A37428F07B017A01791D1224C8781D7CFB
:10172300017D017BFF7A05798E12087278287C008F
:101733007D017BFF7A02794C1208729001A974FF34
:10174300F0A37403F0A37470F07B017A007928127C
:1017530025A59001A97401F0A37401F0A374DCF032
:101763007B017A0079281225A59001A974FFF0A3C3
:101773007402F0A37498F07B017A0079281225A5EE
:101783009001A97401F0A37401F0A37498F07B0194
:101793007A0079281225A59001A974FFF0A3740299
:1017A300F0A374AEF07B017A0079281225A590018D
:1017B300A97401F0A37401F0A3748DF07B017A0086
:1017C30079281225A59001A974FFF0A37402F0A350
:1017D30074B1F07B017A0079281225A59001A974D0
:1017E30001F0A37400F0A37428F07B017A01791D42
:1017F3001224C87F03122AAD9001AF7401F0A374C1
:0F18030000F0A37428F07BFF7A0079890209B7FF
:101C05007F01122AAD122ACD781D7C017D017BFF53
:101C15007A05798E12087278287C007D017BFF7A1F
:101C25000379801208729001A974FFF0A37403F080
:101C3500A3749EF07B017A0079281225A59001A94D
:101C450074FFF0A37402F0A37498F07B017A007915
:101C5500281225A59001A97401F0A37401F0A374BD
:101C650098F07B017A0079281225A59001A974FFC7
:101C7500F0A37402F0A374AEF07B017A0079281208
:101C850025A59001A97401F0A37401F0A3748DF04A
:101C95007B017A0079281225A59001A974FFF0A38C
:101CA5007402F0A374B1F07B017A0079281225A59E
:101CB5009001A97401F0A37400F0A37428F07B01CE
:101CC5007A01791D1224C87F03122AADE4FD7F0134
:101CD500122BC87BFF7A0379BA1229129001AF74CF
:101CE50001F0A37400F0A37428F07BFF7A007989D2
:031CF5000209B72A
:101EAE001228189001D9122AA9E014604D24FE7050
:101EBE0003021F4124036003021F497BFF7A03794B
:101ECE00CB1209B712202F9001AF7401F0A374004A
:101EDE00F0A374C8F07BFF7A0379E91209B7900179
:101EEE00AF7401F0A37400F0A37400F07BFF7A03CB
:101EFE0079FD1209B71219DB804A7BFF7A04790C3F
:101F0E001209B712202F9001AF7401F0A37400F0E4
:101F1E00A374C8F07BFF7A0379E91209B79001AF79
:101F2E007401F0A37400F0A37400F07BFF7A0379C0
:101F3E00FD800E7BFF7A04792580067BFF7A04797B
:101F4E00331209B77BFF7A0479491209B7C298C2D6
:101F5E0098122ACD7F03122AAD7BFF7A0479830271
:021F6E0009B7B1
:1019DB009001AA74FFF0A37404F0A3749AF07B0136
:1019EB007A007900121F70EA494B7003021AFD90BE
:1019FB0001AA74FFF0A37404F0A3749FF07B017A27
:101A0B00007900121F70EA494B7003021AFD781D12
:101A1B007C017D017B017A0079C812087278287CE1
:101A2B00007D017BFF7A0479A61208729001A974DC
:101A3B0001F0A37401F0A374DCF07B017A00792828
:101A4B001225A59001A974FFF0A37404F0A374CB25
:101A5B00F07B017A0079281225A59001A97401F079
:101A6B00A37401F0A37498F07B017A0079281225F6
:101A7B00A59001A974FFF0A37402F0A374AEF07BE0
:101A8B00017A0079281225A59001A97401F0A3749D
:101A9B0001F0A3748DF07B017A0079281225A590B3
:101AAB0001A974FFF0A37402F0A374B1F07B017A67
:101ABB000079281225A59001A97401F0A37400F0F8
:101ACB00A37428F07B017A01791D1224C87F0312BD
:101ADB002AAD7BFF7A0479E21209B79001AF74014A
:101AEB00F0A37400F0A37428F07BFF7A057902123F
:031AFB0009B72206
:072C9D003098FDAF99C298C9
:012CA400220D
:082CA5008F993099FDC29922BC
:102B3600759850758920EF14600C14600E2402708D
:102B46000D758DE88008758DFD8003758DFFD28E1D
:032B5600D29922EF
:030000000222C217
:0C22C200787FE4F6D8FD75812202230924
:1005CA00BB010689828A83E0225002E722BBFE022F
:0905DA00E32289828A83E4932262
:1005E300EF8DF0A4A8F0CF8CF0A428CE8DF0A42E2C
:0205F300FE22E6
:1005F500C5F0F8A3E028F0C5F0F8E5821582700291
:060605001583E038F0222D
:10094C00E50824AFF582E43401F583E00508229034
:10095C0001AC300F039001AFE475F00112090602EF
:10096C0005CA2008E97F2ED2088018EF540F249076
:10097C00D43440D4FF300C0BEF24BFB41A00500316
:10098C002461FFE50960021509050CE50C700205F0
:10099C000B300F0E9001ACE475F001120906EF025A
:1009AC0008BC022A137403D20F8003E4C20FF508AB
:1009BC009001AC12091DE4F509F50BF50CE5096085
:1009CC00077F2012098F80F5750AFFC209C208C281
:1009DC000AC20BC20DC20EC21012095BFF700D30A1
:1009EC000F057F001209A0AF0CAE0B22B4255FC21D
:1009FC00D5C20C12095BFF24D0B40A00501A75F052
:100A0C000A780930D50508B6FF0106C6A426F620DB
:100A1C00D5047002D20B80D924CFB41A00EF500445
:100A2C00C2E5D20C020BA1D20980C6D20880C0D27A
:100A3C000A80BCD2D580BAD20D80B47F2012098F27
:100A4C00200A077401B5090040F112094CFF120984
:100A5C008F0209C9D210D20E809512094CFB1209D3
:100A6C004CFA12094CF94A4B700679727A0C7BFFDE
:100A7C00200A2EE509602A7E008E827583001208FA
:100A8C008F60060EEE650A70F0C2D5EBC0E0EAC0CE
:100A9C00E0E9C0E0EE120BE8D0E0F9D0E0FAD0E0EB
:100AAC00FB1205CAFF60AAEBC0E0EAC0E0E9C0E0B7
:100ABC0012098FD0E02401F9D0E03400FAD0E0FB29
:100ACC00E50A0460DCD50AD980877BFF7A0B79E4D0
:100ADC00D20A809C791080027908C20EC21080085C
:100AEC00D2D5790A8004790AC2D5E50A047002F5D8
:100AFC000AE4FAFDFEFF12094CFC7B0820091312D4
:100B0C00094CFD7B1030080A12094CFE12094CFFEF
:100B1C007B20EC3382D592D55013C3E43008069F6A
:100B2C00FFE49EFEE42009039DFDE49CFCE4CBF86D
:100B3C00C209EC700CCFCECDCCE824F8F870F38061
:100B4C0017C3EF33FFEE33FEED33FDEC33FCEB3329
:100B5C00FB994002FB0FD8E9EB300905F8D0E0C453
:100B6C0048B209C0E00AEC4D4E4F78207B0070C2B1
:100B7C00EAB50A0040BCC0E0120BEAD0F0D0E0208D
:100B8C000904C4C0E0C4B209C0F0120978D0F0D591
:100B9C00F0EB0209C91209260A66530AE0580A3713
:100BAC004C0A33420AE44F0AEC440AEC490A4C431F
:080BBC000AF2550AD6460AD6DA
:100BC400450AD6470C92500A3B2D0A3F2E0A622B47
:100BD4000A43230A60200C7B2A09FB4800000A5AB6
:100BE4003F3F3F00790AA2D5200B14300D09B910FC
:100BF400020404B9080104A2D5200E025001042005
:100C04000A68920AB509005034C0E07F20300B19FD
:100C14007F30A20A720E720D500F120C41C20AC22A
:100C24000EC20DC2107F30800F300D03E9C0E012F8
:100C3400098F300D03D0E0F9D0E0B509CC300D17A1
:100C44007F30B9100C12098F7F58300C077F7880E1
:100C540003B9080312098F300A057F2D02098F7F1B
:100C6400202010F87F2B200EF322920A80CF286ECA
:100C7400756C6C2900D20912094C3009F8C2097844
:100C84000930D50108F60209FB2D504349581209D1
:100C94004C2403B405004001E4900C8D93120980A8
:0D0CA400743A120980D20B750904020AE0AF
:1025A5009001A6EBF0A3EAF0A3E9F09001ACEBF003
:1025B500A3EAF0A3E9F09001A6E0FBA3E475F0011E
:1025C5001208F0A9F0FA1205CA70EB9001A774FF82
:1025D500F5F01205F59001A9E0FBA3E475F00112F1
:1025E50008F0A9F0FA1205CAFF9001A6E0FBA3E4E2
:1025F50075F0011208F0A9F0FAEF1208BC70D69038
:0B26050001ACE0FBA3E0FAA3E0F92227
:10060B00E3F5F009E208B5F06D606B80F3E3F5F00C
:10061B0009E608B5F060605E80F387F009E608B57F
:10062B00F054605280F487F009E208B5F048604658
:10063B0080F488828C8387F009E0A3B5F0386036AC
:10064B0080F488828C8387F009E493A3B5F027604C
:10065B002580F388828C83E3F5F009E0A3B5F016CF
:10066B00601480F388828C83E3F5F009E493A3B5DF
:10067B00F004600280F2020736808580E7808E806E
:10068B00D2803C8015806C807E809B80B5808B8077
:10069B00A1804F8070803A02074289828A83ECFAEC
:1006AB00E493F5F0A3C8C582C8CCC583CCE493A36F
:1006BB00C8C582C8CCC583CCB5F070606E80E189AB
:1006CB00828A83E493F5F0A3E208B5F05E605C8068
:1006DB00F289828A83E0F5F0A3E608B5F04D604B12
:1006EB0080F389828A83E0F5F0A3E208B5F03C60E1
:1006FB003A80F389828A83E493F5F0A3E608B5F098
:10070B002A602880F2805389828A83ECFAE493F57D
:10071B00F0A3C8C582C8CCC583CCE0A3C8C582C82A
:10072B00CCC583CCB5F004600280E27FFFB5F0024C
:10073B000F2240027F012289828A83ECFAE0F5F0D6
:10074B00A3C8C582C8CCC583CCE0A3C8C582C8CC1E
:10075B00C583CCB5F0D560D380E389828A83ECFA6C
:10076B00E0F5F0A3C8C582C8CCC583CCE493A3C87D
:10077B00C582C8CCC583CCB5F0B160AF80E288F040
:10078B00ED2402B4040050A3F582EB2402B4040060
:0B079B005099232345822390068473AD
:1007A600E709F60870FA8046E709F20870FA803E13
:1007B60088828C83E709F0A370FA807EE309F60845
:1007C60070FA8076E309F20870FA806E88828C836C
:1007D600E309F0A370FA806289828A83E0A3F608AF
:1007E60070FA805689828A83E0A3F20870FA804AFA
:1007F60080D280FA80C680D4806580F280318010F5
:1008060080A680EA809A80A880DA80E280CA803159
:1008160089828A83ECFAE493A3C8C582C8CCC583CF
:10082600CCF0A3C8C582C8CCC583CC70E9800D893D
:10083600828A83E493A3F60870F9ECFAA9F0EDFB3B
:100846002289828A83ECFAE0A3C8C582C8CCC58314
:10085600CCF0A3C8C582C8CCC583CC70EA80DD893C
:10086600828A83E493A3F20870F980CE88F0ED249F
:1008760002B4040050C4F582EB2402B4040050BA5A
:0908860023234582239007F67339
:102610009001CFEBF0A3EAF0A3E9F0E49001D7F04A
:10262000A3F09001D574FFF5F01208F045F0603C7E
:102630009001D2E0FBA3E0FAA3E0F91205CAFF90F3
:1026400001CFE0FBA3E0FAA3E0F99001D7E475F035
:10265000011208F085F082F583EF1208CEEF60C218
:102660009001D3E475F0011205F580B69001CFE03A
:08267000FBA3E0FAA3E0F9224C
:101F70009001A7EBF0A3EAF0A3E9F0A3E0FBA3E054
:101F8000FAA3E0F91205CA700302201C9001A7E031
:101F9000FBA3E0FAA3E0F91205CA7003022028901F
:101FA00001AAE0F9A3E0FAA3E0A3C9F0A3EAF0A331
:101FB000E9F09001A7A3E0FAA3E0F99001B0EBF0FB
:101FC000A3EAF0A3E9F09001ADE0FBA3E0FAA3E0FF
:101FD000F91205CAFF60269001B0E0FBA3E0FAA366
:101FE000E0F91205CA6F70159001AE75F001120587
:101FF000F59001B1E475F0011205F580C99001ADCD
:10200000E0FBA3E0FAA3E0F91205CA7002800D908C
:1020100001A8E475F0011205F5021F8C9001A7E0FC
:0F202000FBA3E0FAA3E0F9227B007A007900220B
:101DD3009001ACEBF0A3EAF0A3E9F09001ACE0FBD7
:101DE300A3E0FAA3E0F91205CAFF122BF5500C90F9
:101DF30001ADE475F0011205F580E0D2089001AC65
:101E0300E0FBA3E0FAA3E0F91205CAFF642B600428
:101E1300EFB42D1D9001ACE0FBA3E475F0011208B3
:101E2300F0A9F0FA1205CA642D6003D38001C392AE
:101E330008E49001AFF0A3F09001ACE0FBA3E0FA5B
:101E4300A3E0F91205CAFF122C6E50429001ACE0D8
:101E5300FBA3E0FAA3E0F91205CAFF3395E0FEEF16
:101E630024D0FBEE34FFFA9001AFE0FEA3E0FF7C49
:101E7300007D0A1205E3EF2BFFEE3A9001AFF0A3CA
:101E8300EFF09001ADE475F0011205F580AA30087A
:101E93000A9001AFE0FEA3E0FF800F9001AFE0FEE8
:0B1EA300A3E0FFC3E49FFFE49EFE22CB
:1022CE00022761E493A3F8E493A34003F68001F29E
:1022DE0008DFF48029E493A3F85407240CC8C33311
:1022EE00C4540F4420C8834004F456800146F6DFE0
:1022FE00E4800B0102040810204080902882E47EC6
:10230E00019360BCA3FF543F30E509541FFEE493D4
:10231E00A360010ECF54C025E060A840B8E493A39B
:10232E00FAE493A3F8E493A3C8C582C8CAC583CAC6
:10233E00F0A3C8C582C8CAC583CADFE9DEE780BE7E
:0128B4000023
:10088F00BB010CE58229F582E5833AF583E022501E
:10089F0006E92582F8E622BBFE06E92582F8E22268
:0D08AF00E58229F582E5833AF583E4932282
:1008BC00BB010689828A83F0225002F722BBFE011B
:0208CC00F32215
:1008CE00F8BB010DE58229F582E5833AF583E8F060
:1008DE00225006E92582C8F622BBFE05E92582C80C
:0208EE00F222F4
:1008F000A3F8E0C5F025F0F0E582158270021583BB
:06090000E0C838F0E82217
:10090600F8E0FBA3A3E0F925F0F0E582158270027A
:070916001583E0FA38F0221E
:09091D00EBF0A3EAF0A3E9F022DB
:10092600D083D082F8E4937012740193700DA3A360
:1009360093F8740193F5828883E473740293686074
:06094600EFA3A3A380DF74
:102A1300EFB40A07740D122A1E740A309811A8998C
:102A2300B8130CC2983098FDA899C298B811F63023
:072A330099FDC299F59922FB
:0F2C6E00EFC394304007EF943A50028001C32225
:102BF500EFC394094005EF940E4004EFB42003D3CE
:042C05008001C32265
:00000001FF
